:10000000587D00207DE8000061E8000061E8000004
:1000100000000000000000000000000000000000E0
:100020000000000000000000000000001556000065
:100030000000000000000000F156000035570000ED
:1000400061E8000061E8000061E80000D5C8000038
:1000500055C5000061E8000061E8000061E80000AB
:1000600061E80000FDCC00000DCD00001DCD0000BA
:100070002DCD00003DCD00004DCD000031E8000049
:1000800041E8000051E80000ED410000FD410000A2
:100090000D420000000000000000000061E80000C8
:1000A00061E8000061E8000061E8000061E800002C
:1000B0000000000010B5064C2378002B07D1054B3B
:1000C000002B02D0044800E000BF0123237010BDC4
:1000D000D0020020000000004C960100084B10B533
:1000E000002B03D00749084800E000BF0748036819
:1000F000002B00D110BD064B002BFBD09847F9E731
:1001000000000000D40200204C9601004C96010033
:100110000000000010B50100034B186800230A22FC
:10012000024CA04710BDC046EC020020555C000008
:10013000F8B504004120235C01252B43235492B2DF
:10014000002020560023124DA847002816DB41232B
:10015000E35CDB0718D5E36E0020022B17D90D4FA7
:100160000D4E41250020B847606DB047635DDB0749
:100170000CD5E36E022BF5D8002008E04122A35CE9
:1001800001218B43A35402E0002000E00020F8BDD1
:1001900059C0000071A00000C51200005023038068
:1001A00000238370054A02814360C3600133FF333B
:1001B0000361AE3B4361024B83617047204E0000F8
:1001C0005859010070B504000D00002838D00029EE
:1001D00039D00B69002B39D04B68002B39D04B69D3
:1001E000512B39D9E82200211E4B9847200050306E
:1001F0001C2229001C4B9847E36D002B08D02B894B
:10020000002B11D10023E366D822A350002070BD3B
:100210002869164B9847E065002820D04122A35C4E
:1002200004210B43A354EAE7686800232200104925
:10023000104DA847A0640028E4DA1C204042E6E7FD
:1002400016204042E3E716204042E0E716204042F5
:10025000DDE716204042DAE716204042D7E70C20BF
:100260004042D4E77B420100454201001D420100AB
:100270008903000051120000002802D0C164002050
:10028000704716204042FBE7F0B585B004000E0031
:10029000C023C358002B02D0C422805898472000A6
:1002A000B03018220021174B9847E36E002B24D161
:1002B0000023E3569B000025134A9D5020006C301C
:1002C0006C2200210F4FB8472000D83010220021A7
:1002D000B847E566D823E5504122A35C01218B4352
:1002E00001318B43A3540196E36C002B03D001AA88
:1002F00002312000984705B0F0BD00202056034B86
:100300009847D5E77B420100F002002085C100003C
:10031000F0B587B000900191174C26001C36174F9E
:1003200015E0022302AA13804E33EB5A1A021B0A6D
:10033000134302AA5380019B0393002028561022E6
:1003400002A90F4B984715E00434B44212D0256837
:10035000002DF9D0691C0098B8470028F4D1EB6E45
:10036000012BF1D1019B002BDBD1762149422800E2
:10037000044B984707B0F0BDF0020020D3450100C0
:10038000C9BF00008902000010B5002A04D03E2138
:1003900049421000014B984710BDC0468902000039
:1003A000F0B5DE46574680B595B002AF0400EB4687
:1003B00010230822BA18D218B14B23CB23C21B68D2
:1003C0001360626ED31DDB08DB006946CB1A9D46C5
:1003D00002AE002C00D1F0E14123E35CDB0700D545
:1003E000EBE1E36E032B04D0042B00D120E1DD46CA
:1003F000E4E10023CC216350043163500094A14B0D
:1004000031002C200825AC46BC4460449E4DA847D2
:10041000C823E35C012B00D1A9E0022B00D1AFE09F
:10042000032B00D1B5E0042B00D1BBE0052B00D19C
:10043000C1E0062B00D1C7E0250070352800934BA2
:100440009A469847020029002C2308203818C01823
:100450008F4DA8470B228F492C2308203818C0182D
:10046000A8470C228C492C2308203818C018A8470C
:10047000A36E7B601800D047020079682C23082007
:100480003818C018A847022284492C23082038189D
:10049000C018A847062282492C2308203818C01803
:1004A000A847631C7B601800D047020079682C23A2
:1004B00008203818C018A847022278492C230820A1
:1004C0003818C018A847182276492C230820381855
:1004D000C018A847132274492C2308203818C018C4
:1004E000A847172271492C2308203818C018A8479C
:1004F0002300B033DB68002B7BD0B023E35C002B00
:100500006BD12300B0339B68002B72D02200B03235
:1005100050699847CC23E050002800DAACE0020094
:100520006349202308203818C018624B98471022CE
:1005300061492C2308203818C018554DA84720239E
:100540000822BA18D018514B9847020020230821DE
:100550007918C9180C3308203818C018A847022287
:100560004E492C2308203818C018A84741E004221F
:1005700052492B3308203818C018454B98475BE781
:1005800005224F492A3308203818C018404B984795
:1005900052E707224B49293308203818C0183C4B32
:1005A000984749E704224849283308203818C018DA
:1005B000374B984740E7082244492733082038182A
:1005C000C018334B984737E70522414926330820A6
:1005D0003818C0182E4B98472EE701225242CC23E0
:1005E000E2501D323B49A03B08203818C018284B68
:1005F0009847D423E558002D0AD02800234B98476C
:10060000020029002C2308203818C018204B9847D6
:10061000022222492C2308203818C0181C4B984766
:100620002C230822BA18D0182B4B98470423E366D2
:10063000CC23E258002A51DB00DCF0E02300B03389
:10064000DD68002D00D1EAE0D023E3589A4200DDB6
:10065000BAE0C023E358002B02D0C422A058984728
:100660000223E366E36C002B00D1C0E60C22BA182B
:10067000012120009847BAE60022E250B9E7C046BF
:100680004058010031010000FD1000003346010018
:1006900051110000B4580100C05801007C6A0100EB
:1006A000D0580100D8580100F45801000859010041
:1006B00040590100394501004459010080580100AA
:1006C000885801009058010098580100A058010076
:1006D000AC580100205901000D1100002300B03377
:1006E000DD68002D00D19AE0D023E358626E073A0E
:1006F000711D2000B0304069A8470500C343DB17D7
:100700001D400A2232710D21F170731959719A71CD
:100710000F232B40063205398C46BC446244D35C1F
:10072000B370B11C0F2D0DDD711CEB170F221340A0
:100730005B191B111340013208208446BC446244FB
:10074000D35C7370FF2D0DDDEA17FF2313405B1997
:100750001B051B0F102208218C46BC446244D35C4D
:1007600033703100CA1C921B2B1DD21892B200208C
:1007700020560023304EB047002819DBD022A35862
:100780005B19A350002D00D031E6C023E358002BA5
:1007900002D00C3AA05898470223E366E36C002B82
:1007A00000D124E60C22BA180121200098471EE649
:1007B000052149422000214B9847DD46BD4613B034
:1007C0000CBC92469B46F0BD2200B0325069626E6E
:1007D0003100A847002816DBCC23E5580433E35842
:1007E000ED1A854200DD0500AAB200202056002344
:1007F0003100114EB04700280BDBD023E25894465D
:100800006544E550F3E50521494220000B4B98472C
:10081000EDE5052149422000084B9847CDE702232A
:10082000E366E36C002B00D1E1E50C22BA1801214C
:1008300020009847DBE5C04659C00000890200004F
:10084000F0B5D64600B588B004000F009246039379
:10085000002800D1D3E0C36E022B00D9D3E00722D9
:1008600081493800814B98470726002807D0082285
:100870007F4938007D4B984746424641F600631C4D
:10088000BD19029318007B4B98470200290002987B
:10089000764B984701902B78002B52D02F2B52D0BB
:1008A000711C791800220132A3540D000B78002B23
:1008B00002D001312F2BF6D1A21800235370637898
:1008C000002B00D1A3E028006A4B98473F2800D9AD
:1008D000A1E0D423E058002801D0674B98470E9B35
:1008E000002B32D01800654B9847D423E0500028E5
:1008F00000D194E04122A35C01218B43A354002347
:1009000063642B782F2B24D02F227023E2542B7872
:10091000002B24D1039B002B27D02000B0301822BD
:100920001900574B9847C8235246E254E36E012BF7
:1009300022D0002B27D0022B3AD00B235B4201930D
:100940008DE00022B8E70022B6E70022D423E2506F
:10095000D0E72000703029004A4B9847DAE7290099
:1009600020007130474B9847D4E72000B030182260
:100970000021454B9847D6E7019B002B6FD0002103
:100980002000424B98475223E25C531E9A41D2B258
:10099000012102203E4B98472070002843DB800055
:1009A0003C4BC450029D00212026012030270CE042
:1009B000019B002BE3D10333E3662000364B9847BD
:1009C0004DE0002901D012E001002A78002A2ED043
:1009D00001351300B343413B052BF5D93A2A0AD020
:1009E0002F2A0AD02E2AECD03A40302AEDD0029895
:1009F0002A4B98472FE00100E7E70100E5E71623BF
:100A00005B4201932BE010235B42019327E0162306
:100A10005B42019323E05B235B4201931FE00C23C5
:100A20005B4201931BE01C235B42019317E002230E
:100A300004AA13804E33E35A1A021B0A134304AA72
:100A400053800298164B984705900020205610229C
:100A500004A9144B98470123E366002301930198EE
:100A600008B004BC9246F0BD645901004146010043
:100A70006C5901003346010031420100F945010083
:100A800045420100E74501007B4201008902000068
:100A900049BE0000F0020020A103000089C200004E
:100AA0001DC20000C9BF000010B500280DD0416C68
:100AB000026E91420AD2521A92B2C36D9C466144B0
:100AC000007840B20023044CA04710BD8B2149425E
:100AD000024B9847F9E7C046F1C0000089020000C8
:100AE00070B50500C06D6B6C5C1A0419002C02DC3B
:100AF00000236B6470BD2200014B98476C64F9E7DA
:100B000057420100F0B5CE4600B584B00700C46D71
:100B1000624B994649E021003800614B9847002616
:100B2000300004B004BC9146F0BDA11C38005C4B01
:100B30009847FB6C002B0AD0E422B95A002906D052
:100B4000083AB858002807DB3A6E904210DC0122C0
:100B5000D823FA500126E3E701AA11800121917000
:100B60000021E02039509160023138009847EEE7CB
:100B700001AA1180506000219160E02039500231BB
:100B800038009847E3E720001030464B9847DC23B5
:100B9000F85009E00132954206D01378202B2BD172
:100BA000F8E7213A8933FA50AC1C3F492000C84786
:100BB000051EB0D0FB6D7A6C944663449842AAD26D
:100BC000022239492000394B98470028ADD0102225
:100BD00037492000354B98470028D4D01322354997
:100BE0002000324B9847061E10D122001332954246
:100BF000DAD9E37C202BCDD020229343432BD0D0D5
:100C00008621494238002C4B984789E70C222B4912
:100C10002000264B984700281DD122000C32954217
:100C2000C2D9237B202B09D0202293434B2B0CD0FD
:100C30004122BB5C02218B43BB54B5E70132954294
:100C4000B2D01378202BEFD1F8E72132BB5C022120
:100C50000B43BB54A8E7052219492000134B9847C2
:100C60000028A1D1200009300E4B9847E423F85208
:100C70000022083BFA506379312B02D8E379302BFC
:100C800005D94122BB5C02210B43BB548CE74122B6
:100C9000BB5C02218B43BB5486E7C046B1460100D2
:100CA000E10A0000C94101007C6A010041460100DF
:100CB000445901005458010089020000685801009D
:100CC00078580100F0B5CE4600B586B00400C56D79
:100CD000DC23C358002B69DB026E93422BDC00201F
:100CE000626C93424EDCE66C002E03D0E422A15AE3
:100CF00000290ED10023D822A3500C32A352413335
:100D0000E35C9B070FD400212000714B9847002023
:100D100038E003AA11800021917053609560023180
:100D20002000B047E6E7DC23E15869182000694B52
:100D30009847606C26E0426C03920495E02140588D
:100D4000844662446250934220DC0023D822A350A0
:100D50000C32A352E33A03AB1A72E36C002B07D0B8
:100D600003AE3200032120009847337A012B03D1D0
:100D70004123E35C9B0710D5636CE9182000554BB9
:100D80009847002006B004BC9146F0BD002203AB9A
:100D90001A72E36C002BEFD0E2E74F484F4B9847B5
:100DA000002120004A4B98470020EBE7476C0023C6
:100DB0009946E0260AE04123E35C9B071BD5A91C6A
:100DC0002000444B9847636C002B73D0A359002B31
:100DD00030DB16D1D822A3500C32A352E33A694635
:100DE0000A7200930193E36C002BE4D06A4603215E
:100DF00020009847DFE700212000354B984700206E
:100E0000C0E7BB42DFDC0093019500236A46137202
:100E1000E36C002B02D0032120009847A359991CB2
:100E2000691820002B4B9847676CE56D01235B42E6
:100E3000A351C8E70023A351002F04DD2B780A2B10
:100E40001CD10135013FA359226E934239DC002F9A
:100E5000B9D101225242E023E250D0E71A00613AB0
:100E6000052A18D8A2591201D318613BA3510135A4
:100E7000013F002F20D02B780A2BE2D04A46002ACF
:100E8000F5D11A00303A092AE8D8A2591201D3182C
:100E9000303BA351EBE71A00413A052A05D8A25985
:100EA0001201D318413BA351E1E73B3B5A425A415F
:100EB0009146DCE7002065E7E023E358226E934289
:100EC000C7DD8B2149422000014B984797E7C04678
:100ED00089020000E10A0000505801009D44010011
:100EE00010B5D823C358002B03D0012B04D0002009
:100EF00001E0034B984710BD024B9847FBE7C04603
:100F0000050B0000C50C000070B50400436C9C4646
:100F1000614441645823C35A002B05D1054D20007C
:100F2000A8470028FBD170BD816C406D024B9847EB
:100F3000F4E7C046E10E0000B512000010B584B021
:100F40008000654BC458002C06D0062951D00729D3
:100F500000D18AE0052901D004B010BD0123D35689
:100F60001A1E019315DBE36C002B03D001AA0021AC
:100F7000200098470323E3665533E25AA16C606D65
:100F8000564B98472000564B98472000554B9847A2
:100F9000E2E70E33D9B20E291ED88B005249CB5846
:100FA0009F46022149421DE0702149421AE00C216E
:100FB000494217E01621494214E00C21494211E050
:100FC000792149420EE0682149420BE00B21494258
:100FD00008E01021494205E0002A07DB002101E07A
:100FE000052149422000414B9847B5E70521494278
:100FF000F8E70423D15E002906DD20003C4B98472A
:101000002000374B9847A7E70B000E339AB20E2A01
:101010001ED89300374AD3589F46022149421DE00B
:10102000702149421AE00C21494217E01621494239
:1010300014E00C21494211E0792149420EE0682177
:1010400049420BE00B21494208E01021494205E0EA
:10105000002907DB002101E0052149422000234B44
:101060009847CDE705214942F8E70023D35E002BDE
:1010700008DB20001B4B98474122A35C01218B43D6
:10108000A35469E70E339AB20D2A1ED893001A4A68
:10109000D3589F460221494219E07021494216E087
:1010A0000C21494213E01621494210E00C2149422B
:1010B0000DE0792149420AE06821494207E00B210D
:1010C000494204E01021494201E005214942200043
:1010D000064B9847D0E7C046F00200208912000076
:1010E000A90A0000A1030000905701008902000036
:1010F000090F0000CC57010008580100026001618F
:10110000002242608360009BC360704710B50400FA
:101110004268002A00D110BD0169C068A3689847E1
:1011200000236360F7E7000070B504000D0003685A
:1011300042689B1A002B05DD22696368591C6160B7
:10114000D55470BD014B9847F6E7C0460D1100001D
:10115000F8B506000C00002A08D08D18044F0021B5
:1011600061563000B8470134A542F8D1F8BDC046F9
:1011700029110000024A1368013313607047C0460A
:101180000C030020642343800023037043707047E6
:10119000F0B5C64600B5ACB00D006E461D4B6A46B4
:1011A00092CB92C26B884365143004002B789B006D
:1011B000995917001000184B98470020174B984773
:1011C000174B1B7ADBB2D84080466988FA200002B0
:1011D000144B984701004046134B9847786005230D
:1011E000FB722B789B0099593A0020000F4B9847CF
:1011F0006A780832D2B20E4920000E4B98476978BF
:101200000831C9B220000C4B98472CB004BC904662
:10121000F0BDC0467859010025E20000DDDE000087
:1012200000040040891E0100751D010071E30000EB
:10123000751100008DE70000A5E70000426902215A
:1012400093681942FCD1136802210B431360704765
:1012500070B504000578E80702D50120404270BD52
:1012600061602900022081432170A260616D180035
:10127000044B9847E0602378012213432370002039
:10128000EDE7C046751D010070B58B005D18AD001F
:10129000295C0226314329544419416D1000034B47
:1012A0009847034B1B68C018206170BD751D010075
:1012B0000C0300208B00591889000B5C0222934319
:1012C0000B54704770B504000378DB0707D503782B
:1012D0009B0704D5104B1A6803699B1A00D470BD94
:1012E00003785B07FBD4037804210B430370C368C6
:1012F000002B0BD0D2180261A26800212000656883
:10130000A8472378042293432370E8E70278022158
:101310008A430270F0E7C0460C030020034A1378AA
:10132000591C1170024AD0547047C046D80300209F
:101330001003002000B587B005AB00221A7058706A
:1013400001A83C32027043600223C381012149425B
:10135000014B984707B000BD353A000000B585B095
:10136000074B1B783C2269460A70064A0192CB81E2
:10137000012149426846044B984705B000BDC0466C
:10138000D803002010030020353A0000F0B5DE46F7
:1013900057464E464546E0B583B000223C4B1A7096
:1013A00001323C4B1A703B323B4B1A7064203B4D70
:1013B000A847AE203A4CA047D520A0478020A047A0
:1013C000A820A0473F20A047D320A0470020A04747
:1013D0004020A0478D20A0471420A0472020A047F0
:1013E0000020A047A120A047C820A047DA20A0479E
:1013F0001220A0478120A047CF20A047D920A04796
:10140000F120A047DB20A0474020A047A420A04710
:10141000A620A047AF20A0470520A8470020A0474E
:101420001020A0474020A047B02301931C4B9B46AF
:101430001C4B9A461C4B994605E0019B0133DBB2DD
:101440000193B82B1CD00198D8470020D847102012
:10145000D84708270025A846134E534642461A701F
:101460004020C84710242800B047013CE4B2002CBB
:10147000F9D10E4B9847013FFFB2002FEDD1DCE7C9
:1014800003B03CBC90469946A246AB46F0BDC04670
:10149000324300203443002031430020E18F00001C
:1014A00035130000D80300201D1300005D13000059
:1014B00070B5094D2870094B19705039C8B2084CE5
:1014C000A0472B780F201840A04728780009102348
:1014D0001843A04770BDC04633430020304300206E
:1014E00035130000F0B5D6464F464646C0B5040059
:1014F0000A282BD00D283BD0964B1B78002B3BD0D5
:10150000213CE4B25D2C00D9D0E0934B18785038E0
:10151000C0B2924DA847924E33780F201840A8478A
:101520003078000910231843A84700228D4B1A7009
:1015300040208D4B98478D4B2701DF19621C12010B
:1015400098469044884B9A46894E65E0814B1978BD
:101550004B1E99410131804B1B78C918C9B200203C
:10156000844B984701201CBC90469946A246F0BD8A
:1015700000227B4B1A70F5E700227A4B1A7040204C
:10158000794B9847213CE4B25D2C2CD87A4BA500CE
:101590002D195D190134A20014191C19724B9846BB
:1015A000734F02E00135A54209D02E783000C047C4
:1015B0003B789B07F6D530006B4B9847F2E700204D
:1015C000694B98476D4B9847694B1A780B239207E4
:1015D00000D4053B624A12789B18DAB21B0610D47D
:1015E0005F4B1A70BEE7624B1B780B249B0700D43D
:1015F000053C5D4D0020A847013CE4B2002CF9D128
:10160000E0E70022564B1A70534A137801331370E7
:10161000A8E70237474509D03D782800D0473378FE
:101620009B07F6D52800504B9847F2E7534B984755
:10163000494B18784F38C0B2484DA847484E3378C8
:101640000F201840A8473078000910231843A847F6
:101650000022444B1A704020434B98472401434BCF
:10166000671CDF1911341C193F4B9946404E02E0AC
:101670000237BC4209D03D782800C84733789B0721
:10168000F6D52800384B9847F2E73C4B9847384B43
:101690001A781123920700D4083B314A12789B181C
:1016A000DAB21B064DD42E4B1A705BE72A4B187822
:1016B0005038C0B2294CA047294D2B780F20184034
:1016C000A0472878000910231843A0470022254B83
:1016D0001A704020244B9847254B1B7810249B07F9
:1016E00000D4083C204D0020A847013CE4B2002C67
:1016F000F9D1224B9847184B18784F38C0B2174C85
:10170000A047174D2B780F201840A04728780009D4
:1017100010231843A0470022124B1A704020124B8E
:101720009847134B1B7810249B0700D4083C0E4DA0
:101730000020A847013CE4B2002CF9D10F4B984798
:10174000A5E70022064B1A70034A13780233137080
:1017500008E7C04632430020304300203513000024
:1017600033430020D80300201D1300005C5B010000
:1017700034430020B1140000845901005D130000BF
:10178000F0B5DE4657464E464546E0B583B00020EC
:101790001E4CA0471020A0474020A047B023019333
:1017A0001A4B9B461A4B9A461A4B994605E0019BE9
:1017B0000133DBB20193B82B1CD00198D84700202D
:1017C000D8471020D84708270025A846114E534671
:1017D00042461A704020C84710242800B047013CF8
:1017E000E4B2002CF9D10C4B9847013FFFB2002F17
:1017F000EDD1DCE700210020084B984703B03CBC4A
:1018000090469946A246AB46F0BDC046351300004F
:10181000D80300201D1300005D130000B114000068
:10182000F8B5051E0ED0094B9847061E0CD00024B3
:10183000074F285DB847002802D00134A642F8D1EE
:101840002000F8BD0024FBE70400F9E7334601005F
:10185000E5140000024B1A78104318707047C04618
:10186000DA03002070B5050005490120054CA047AA
:101870006A689368526804490120A04770BDC04659
:10188000D4610100AD7F0000EC61010070B584B04F
:10189000040003AB00221A705A709A704268936871
:1018A000526818490120184DA84723689C680422F3
:1018B00016492000164B9847002820D1201D029081
:1018C0002379002B12D00024124E03AD0A2202A964
:1018D000B0476055029B1A782C2A07D1581C0290F9
:1018E000022C03D001345B78002BEFD103A94B7895
:1018F0000A788978009108490120034CA04704B078
:1019000070BDC046EC610100AD7F0000F4610100D4
:1019100041460100ED470100FC610100F0B587B0D0
:1019200004001422FF2101A82F4B984723689868D0
:1019300009222E492E4B9847002843D12D490130CA
:101940002D4DA8476268936852682C490120A8472A
:1019500022689368D2682A490120A84723689B68B7
:101960001800093000905B7A002B13D001AC1725CA
:101970006D44244E0A226946B0472070009B1A78B5
:101980002C2A07D1581C0090AC4203D001345B785C
:10199000002BEFD11C490120174B984701AC06AF33
:1019A0001A4E154D227831000120A8470134A74274
:1019B000F8D101A8164B9847012813D115490E4BB1
:1019C00098470FE0144901200B4DA84762689368BF
:1019D00052680A490120A84722689368D2680849DA
:1019E0000120A84707B0F0BD7B4201004061010023
:1019F000414601004C610100AD7F0000EC61010037
:101A000068610100ED47010070610100846101001F
:101A10001501000088610100A461010070B5040097
:101A200002689368D26810490120104DA8472368C6
:101A3000986804220E490F4B9847002804D00E499D
:101A400001200A4B984770BD0C4B98470C4B9847A8
:101A50000C4B98470C480D4CA047FA2080000C4BCB
:101A600098470C48A047EEE710620100AD7F0000E8
:101A7000286201004146010030620100613D000022
:101A8000B53C00001D3D0000A0860100413D000066
:101A9000E18F000050C3000010B50A4B1A680132F4
:101AA0001A601B68282B02D90122064B1A60054BCD
:101AB0001B68054A3F210548054CA0470122054BFC
:101AC0001A7010BDC4000020AC620100400000206C
:101AD000D54401000404002010B5014B984710BD07
:101AE0000511010010B5014B984710BDF910010018
:101AF00010B582B0154B1B78DA0712D59A0715D5A9
:101B00005A0718D41B071BD411490120114B9847C1
:101B100000230093012210491048114CA04702B045
:101B200010BD104901200B4B9847F8E70E490120E2
:101B3000084B9847F3E70D490120064B9847EEE71D
:101B40000B490120034B9847E9E7C046DA03002020
:101B5000D4650100AD7F00000066010090430020C5
:101B60004108000024650100506501007C6501000A
:101B7000A865010000B587B06846134B9847134B22
:101B8000029380239B000393114A04920593114B07
:101B90006A461380104B938069461048104B984753
:101BA000021E07DB0F490D480F4B9847021E06DB4C
:101BB00007B000BD0D4901200D4B9847FEE70D49C8
:101BC00001200B4B9847FEE7CD1001004004002098
:101BD000400600205B07000070170000080400208A
:101BE00015100100F91B0000E9100100446201001A
:101BF000AD7F00007862010030B587B00400012994
:101C000030D005294FD0002901D007B030BD13686E
:101C1000002B1CDB26490120264B9847264A00232F
:101C2000059304930393029301930092234B0121A4
:101C30002000234CA047002804D0224901201D4B3E
:101C40009847E2E7204901201A4B9847DDE71F4DEE
:101C50002A001F490120174B9847290020001D4BDF
:101C60009847D2E71278002A18D11B4B02321B4941
:101C70001B4DA8471B4B02221B492000A8471B4BAA
:101C800002221B492000A8471A4B02221A492000B1
:101C9000A8471A490120074B9847B6E71849012081
:101CA000044B9847B1E717490120024B9847ACE72E
:101CB000A0630100AD7F0000CC630100BC630100A4
:101CC0003D110100D8630100006401009063010030
:101CD0001C640100111101001D1900005464010071
:101CE000411201008D1800006864010065180000B1
:101CF0007C6401001D1A00009064010098640100DA
:101D0000AC640100E064010070B584B005000C0013
:101D1000FF2213000B40090E0291210C114001918A
:101D2000210A0A400092020004490120044EB047F3
:101D300021002800034B984704B070BDF4640100F3
:101D4000AD7F00001103000010B5014B984710BD96
:101D50003D0F0000F0B5D64600B59AB00190029153
:101D600000280DD000290BD0874B1B781B0700D50E
:101D7000C5E0864B30221A700A325A70844C08E053
:101D800084490120844B98471AB004BC9246F0BDA8
:101D90000400601E03782F2BFAD1804B984701284E
:101DA00000D8C1E0794FB81C21007D4B98474122F3
:101DB000002109A87B4CA0470922002106A8A047C2
:101DC00000230593784C002239002000774B984778
:101DD00007002000764B9847002F7DD16B486F4B52
:101DE0009847402878D82E216848724B9847041E9F
:101DF0003BD06A4B9847070086B2072E21D82100B6
:101E000006A8674B98476148644B98473F043F0CCE
:101E1000C71B3C2F0AD93C27BF1BBFB23A005B4906
:101E200009A8654B984701239A4612E05749641A5E
:101E3000A7B22404220C09A85F4B984701239A46B5
:101E400007E03C22514909A85B4B984700239A467A
:101E50003C277C1CA4B22D2209ABDA550126E31CD9
:101E600009AA94466344039319E03C22474909A810
:101E7000514B984700239A463C27EAE74A4F0022F5
:101E800009A93800494B984705003800484B984746
:101E9000002D17D10136494BB2B29A421CD83200FC
:101EA000474905A8474B984709AB1819032205A9CC
:101EB000414B98475346002BE0D006A90398384B76
:101EC0009847DBE7314C402200212000354B9847F2
:101ED00009A92000324B98472C4C22003A49012096
:101EE0002D4B98470A2221002F48304B9847002855
:101EF00022D10022354B1A600820354B9847002329
:101F0000099309AB029A01992748324CA04700284F
:101F100018D02548264B984720202D4B98472E490E
:101F200001201D4B98472FE72C4901201A4B984759
:101F30002020274B984727E7020029490120164B0C
:101F4000984721E7214C236809998C4663441A007D
:101F50002360244D2B68244901200F4EB04722688E
:101F60002B689A4200D20FE70F48114B98471F4940
:101F70000120094B9847802212041D4B5A61102002
:101F8000134B984700E7C046DA030020800000208A
:101F90001E66010020660100AD7F0000334601008F
:101FA000E74501007B420100DC03002081000100C5
:101FB000CD0401008D46010063460100E7030000E7
:101FC00044660100394501004C66010040080020CC
:101FD0005518000009020100E8660100746601005E
:101FE000B466010000040020246701005867010066
:101FF0000044004170B51400042907D889002D4B16
:102000005B589F462C4901202C4B984770BD2C49AA
:1020100001202A4B984704202A4B9847F6E712885C
:10202000636829490120254DA8472388C82B10D172
:102030006168264B19600022254B1A6080239B00A3
:102040009942E3D8A068234B984710201D4B98472E
:10205000DCE720201B4B9847D8E7116850681D4BE0
:102060009847237A002BD1D01020164B9847CDE704
:10207000126819490120114B984723680B33C5D1C9
:10208000164B1B781B0706D4144B1B785A070BD42E
:10209000134B9847BAE71348134B98470F4A1378E6
:1020A00008218B431370EFE7042293430B4A13700C
:1020B000EEE7C0462C610100C0620100AD7F000068
:1020C000F86201005518000024630100000400209C
:1020D00040080020551D000060630100DA03002065
:1020E000F11A0000DC030020CD04010010B582B01D
:1020F0002C2803D0322837D002B010BD0B78012B2A
:102100001DD0002BF8D128490120284B9847284A98
:10211000137802218B4313701B0717D4244B1B78B1
:102120005A071CD401212348234B9847FF230093CF
:10213000224B022211212248224CA047DCE72249EF
:1021400001201A4B9847214B9847D5E72048214B4F
:102150009847174A137808218B431370DEE704224F
:102160009343134A1370DDE74B780A78C8780190DF
:1021700089780091184901200C4CA0470220174B88
:102180009847174B1B78012B0AD016490948164B64
:1021900098470028B0D015490120044B9847ABE779
:1021A000134B9847A8E7C04640690100AD7F000087
:1021B000DA03002008040020D51101006469010041
:1021C00074690100E9A200002069010005A3000074
:1021D000DC030020CD0401008869010055180000CF
:1021E000D90300209063010011110100B0690100C2
:1021F000F11A000010B584B001AC2000074B9847DD
:102200003723019300236360013323720133E372A8
:1022100021000720024B984704B010BD2DC60000D6
:1022200041C6000010B5002207210448044B98471E
:1022300000210720034B984710BDC046991A0000A3
:10224000E9C4000015C50000F0B5C64600B592B05F
:102250006420CA4B98470022C94B1A7004210520FC
:10226000C84CA047C84D2860002206210520A04781
:10227000C64B1860002214210220A047C44B1860EE
:10228000002202210520A047C24B18602B68002BBA
:1022900044D0BE4B1B68002B40D0BD4B1B68002BAD
:1022A0003CD000283AD0BC48BC4B984705AC200035
:1022B000BB4B9847BB4D21002800BB4B98472800DB
:1022C000BA4B98472000BA4B984780239B00236164
:1022D00065600023A3702100B648B74B9847021EE3
:1022E00020DBB649B348B64B9847B64B9847B64B38
:1022F0009847B64B9847182200210CA8B44B984732
:10230000B44B9847B44B0C930CA8B44B9847021E9F
:102310000DD0B3490120B34B9847FEE7B2489F4B1D
:102320009847C0E7B1490120AE4B9847FEE7B04C53
:102330002200B0490120AB4B9847AF4B9847AF49BB
:10234000AF48B04B9847FF230093AF4B02221121B7
:102350002000AE4CA0478A4B1B789B070AD4AC4E9A
:10236000904DAC4C0020B0472800A047844B1B7810
:102370009B07F7D5FA208000804B98470122A64B97
:102380001A701E00A24B98462BE0002B00D0ACE147
:10239000A24B98478B4B984798499948994B984737
:1023A000954B984734239E4AD35C002B58D09D49C7
:1023B00001208C4B98470122974B1A7005A90023E6
:1023C0000B70714B18680022974B9847012800D179
:1023D0008FE1964B1B78002B00D08FE16420674B78
:1023E00098473378012B4CD05AB2012ACDDD022B0D
:1023F00000D14BE1032B00D077E1614B1B783022F9
:102400001A420ED1824D674C824F0020A84720000F
:10241000B8470520594B9847594B1B7830221A4230
:10242000F3D07E4B9847FA208000544B9847002207
:102430007F4B1A7005A97F4B0A0031CB31C20A22AB
:102440007D487E4B9847002800D048E17C48534B9C
:10245000984779487B4B984700226F4B1A70ADE73D
:1024600079491000794B9847002805D134236C4AEC
:10247000D35C002B9FD09AE775490120594B9847B0
:10248000F4E70020C0474748624B9847404B186824
:10249000002205A9644B9847012811D03B4B1868CE
:1024A000002205A9604B9847012849D034235C4A93
:1024B000D35C002B82D064211000664B98477DE7E7
:1024C000654A664B03CB03C21B88138005AB1F789C
:1024D000FF2F18D00024624D05E003A92C230B80A8
:1024E0005D48604B98473B005F4A032103A8A8471B
:1024F00003A959485B4B9847013405ABE75CFF2FB4
:1025000001D0142CE9D1544C2000584FB847201862
:1025100003225749574B984721000120314DA847C6
:1025200055490120A8472000B84703000022019226
:1025300001320092220051493948514CA047ADE781
:1025400005AA0021535E444C0420115E0191022132
:10255000525E00924B4A3F212000414FB847200075
:10256000424B984703000022019201320092220060
:1025700045492B48424CA04798E7C046D970000017
:10258000DA030020195B00005408002050080020E6
:102590004C08002048080020B4670100FD7E0000C0
:1025A0008511000038430020911100003D12000009
:1025B0009D01000090430020C5010000F51F0000B0
:1025C00079020000751B0000F521000025220000A3
:1025D0007B42010021900000ED200000459F00009B
:1025E00018680100AD7F00008C670100D067010012
:1025F0007469010044680100B5BD0000D91A0000EB
:10260000E51A000035BE000064690100E9A200007F
:1026100071A00000C512000044080020F9BD0000B0
:102620000804002068680100F16200000404002032
:10263000D903002014690100DC030020810001009F
:10264000D4680100CD040100906301001111010064
:10265000B069010065120100000000204061010026
:10266000D5440100B94501008468010033460100EA
:1026700088680100454201007C6A01008C68010005
:1026800005120100A06801007C640100264927486A
:10269000274B984700281DD13423244AD35C002BB4
:1026A00007D0244D170034240020A8473B5D002BA1
:1026B000FAD1214B98470122204B1A70204921481A
:1026C000214B9847214B9847214B98470322214B98
:1026D0001A7073E620490120204B9847DCE702007E
:1026E0001F4900201D4B9847B3E60022194B1A7072
:1026F00064E605AB1A78174B1A706AE6194C20008D
:10270000194B9847030000270197012200922200ED
:1027100016490648164DA8472200164901200F4BBE
:102720009847154B1F7059E690630100080400207C
:10273000D511010071A00000F9BD0000D9030020EF
:10274000091D0000491D000035BE0000B5BD000098
:10275000F11A000044080020B0690100AD7F0000BC
:10276000C46801004000002033460100E868010011
:1027700005120100046901000404002010B50100E5
:10278000034B186800230A22024CA04710BDC04624
:1027900048080020555C000001680722CB691A42F6
:1027A000FCD1704770B5040006683268458B838B96
:1027B000ED1AADB2838B013B9BB2838313011DD510
:1027C000C37A002B03D0838B9BB2012B10D0A38B39
:1027D0009BB2002B02D1A37A002B1CD12000124BFC
:1027E0009847236A5D192823F35CDBB22B7070BD18
:1027F00072688023DB0213437360E8E7C37A002B1F
:10280000E5D0838B9BB2002BE1D172688023DB0281
:1028100013437360DBE72000034B98477268C023C3
:102820009B0213437360D9E79927000070B5040039
:1028300005686B8B5B0703D51E222523C25470BD30
:10284000468B838BF61AB6B2838B013B9BB2838394
:10285000044B9847236A9E193378DBB22822AB5485
:10286000EDE7C0469927000070B505000C0006682A
:102870004B7A002B1AD17368134A13407360636854
:102880002B626388AB8300222423EA540532013390
:10289000EA54223BB375237A002B0BD123885B00CB
:1028A000627A920313437362002070BD897A074BEA
:1028B0009847E0E723885B00627A92031343802203
:1028C000120213437362EFE7FFFFFBFF6941000051
:1028D000F8B505000C0006684B6803624B888383DB
:1028E00001222423C25404320133C25437683F0109
:1028F000FF0F4B7A002B17D1002F02D06388012BDA
:1029000016D07368204A13407360237A002B15D1C8
:102910000323B37523885B00627A92031343012279
:10292000134373620020F8BD897A184B9847E3E798
:1029300072688023DB0213437360E6E723885B0041
:10294000627A9203134380221202134373622800B7
:102950000F4B984773680C4A134073600028E2D10C
:1029600028000C4B98470028DDD10323B37523883A
:102970001B0A782213435B00627A920301210A4307
:1029800013437362CFE7C046FFFFFBFF69410000BE
:102990003D4100000D410000931C9B00C31859608D
:1029A000037E012191400B43DBB2037670470000A8
:1029B00010B5838B9BB20522002B01D0100010BDF7
:1029C00001338372C372024B98470200F6E7C04698
:1029D000D128000010B5838B9BB20522002B01D0BB
:1029E000100010BD01338372C372024B984702007E
:1029F000F6E7C0466928000070B58000754BC458E2
:102A000025682B681B01DA0F637E267E1E40638BD0
:102A10009BB2002B03D1A38B9BB2002B23D1638BE2
:102A20009BB2002B08D0A38B9BB2002B04D1253383
:102A3000E35C052B00D16DE0638B9BB2002B24D0AF
:102A4000A38B9BB2002B20D06B8B9B0600D581E023
:102A5000002A04D0A38B9BB2012B00D17AE0412243
:102A60002523E25411E02B7EDB0707D501232B76CB
:102A70006B8B9B072ED541222523E254A38B9BB25F
:102A800063832523E35C052B38D0638B9BB2002B3B
:102A900007D0A38B9BB2002B03D12533E35C052B1E
:102AA00064D02523E35C052B13D02523E35C002BA6
:102AB0000FD003232B7500236383A3832533E35CAB
:102AC000412B03D0A37A002B00D075E0730700D50B
:102AD0007BE070BD6B8B5B07D0D518222523E254B9
:102AE0000023A383A37A002BC8D020003A4B984739
:102AF0006A68C0239B0213436B60BFE71F33E35C2C
:102B0000002B03D02000354B9847BEE72000344B04
:102B10009847BAE71F33E35C002B00D08CE7033300
:102B20002B750023638325330022E254A37A002B04
:102B300007D101232B76F307A7D5E3682000984738
:102B4000A3E72000244B98476A68C0239B021343E5
:102B50006B60F0E72423E35C002B03D12000204BC3
:102B6000984792E720001D4B98478EE71F33E35CA0
:102B7000012B96D12B7E9B0701D502232B760323B5
:102B80002B750023638325330022E254B30703D55A
:102B90002423E35C012B0BD0F30700D481E724232B
:102BA000E35C002B00D07CE7E3682000984778E7DF
:102BB00023692000984774E72000074B98476A680C
:102BC000E023DB0213436B6080E7636920009847D2
:102BD0007FE7C046CC5B002099270000A5270000B6
:102BE0002D280000BFF34F8F024A034BDA60BFF37A
:102BF0004F8FFEE70400FA0500ED00E0F0B587B066
:102C000002900F001F4B984705000F2402AB9C4613
:102C1000644421001C4B98472378002B07D11B4AA2
:102C2000390002981A4B9847002007B0F0BD194CA4
:102C3000062200212000184B984721002800174B3E
:102C400098470023E05E164DA847164E30600223D9
:102C5000E05EA84770600423E05EA847041CB060F3
:102C6000114D3068A8470390201CA8470190706858
:102C7000A8470090039B0D4A39000298044CA047D6
:102C8000D2E7C046493C0000E93B0000586A010019
:102C9000D5440100740800207B4201000D3C000077
:102CA000CD3B0000580800205D260100346A010079
:102CB000F8B506000F00064D1B23064A0F21280019
:102CC000054CA0472A0039003000A0470020F8BD7D
:102CD00064080020546D0100D5440100F8B50400DB
:102CE0000D000E4B98470E4B98470E480E4FB847B5
:102CF0000E4B98470E4E3080FA208000B84730883F
:102D000000090C4B98470C4B984783B20B4A29009B
:102D100020000B4CA0470020F8BDC04675320000D3
:102D2000CD340000EE020000E18F0000F13400001D
:102D30004C0900209D260100B52001006C6A0100AD
:102D4000D544010070B505000E000B4B98470B4BA6
:102D500098470B4B98470B480B4CA047FA20800034
:102D60000A4B98470A48A0470A4A310028000A4BF4
:102D70009847002070BDC046613D0000B53C000092
:102D80001D3D000050C30000413D0000E18F0000E8
:102D9000A08601001C6A0100D544010030B583B053
:102DA00004000D006B46981D002303806421124B24
:102DB000984700280ED00300104A29002000104D2B
:102DC000A8476B46981D0F4B984701280BD0002051
:102DD00003B030BD6B4606331B880B4A2900200028
:102DE000074DA847EDE72000084B984720181A2206
:102DF0000749084B9847EAE7B5360000D869010053
:102E0000D54401007D270000EC6901003346010034
:102E1000006A010045420100F0B5D646474680B53C
:102E20008BB005900691140009AA012120003B4BAC
:102E300098470A2200213A4B984705000F2842D8AC
:102E400009AA02212000354B98470A220021344B61
:102E500098470600FF2841D809AA032120002F4BDC
:102E600098470A2200212E4B98470700FF283BD89D
:102E700009AA04212000294B98470A220021284B47
:102E800098478046FF2835D86A46D077D37FFAB274
:102E9000F1B2E8B2234CA047002831D1224B984729
:102EA000002834D1FF212B000B4044460C400294F3
:102EB0003A000A400192314000911C4A0699059857
:102EC0001B4CA04704E01B4A06990598184B9847ED
:102ED00000200BB00CBC90469A46F0BD164A0699ED
:102EE0000598134B9847F3E7144A06990598104B39
:102EF0009847EDE7124A069905980D4B9847E7E782
:102F00000300104A06990598094CA047E0E7030022
:102F10000D4A06990598064CA047D9E7B143000031
:102F200025490100513C0000893C0000546B010020
:102F3000D5440100806A0100A86A0100D06A01003E
:102F4000F86A0100206B0100386B0100F0B5D6462D
:102F50004F4680B583B06948694CA0476948A0478F
:102F60006948A0476948A0476948A0476948A04701
:102F70006948A04769486A4B98470322002101200D
:102F8000684B9847684B1860002806D167490330A2
:102F9000674B98470020674B98470024664B99463B
:102FA000614B9A4633E00121494253461868634B0E
:102FB000984701A8604B98472DE06148584B9847C7
:102FC0000024604B1C70604B1C70604D31226049C6
:102FD0002800604B98473123EC545F4C5C4E5F4FA8
:102FE000642221003000B847050000226323E25428
:102FF00020004B4B9847002DF2D13222002154483B
:10300000574CA047642200215348A047002401A840
:10301000C847431CC7D06B461B790A2BCDD00D2B5C
:10302000CBD0484A1278002A3FD0474A1278032A68
:1030300013D8511CC9B2444801704A48835401292D
:10304000E5D949494748494B984700280BD1002307
:103050003C4A13703C4A1370D9E70023394A137075
:10306000394A1370D3E73A4C1B2241492000414BA7
:10307000984720002A4B9847322200212000384BE5
:103080009847312231492000324B984720003A4B73
:1030900098473124302803D82C48374B98470400F0
:1030A000E4B22B481E4B9847D1E7082B10D07F2B5A
:1030B0000ED01B2B1AD0312C03D8254A13550134BE
:1030C000E4B200236A46537101A8154B98479EE766
:1030D0002A4B1B6800936846114B9847002C96D0EA
:1030E000013CE4B200221A4B1A5590E70122154B1D
:1030F0001A700022144B1A7089E7C0467C6D0100DB
:1031000055420000446D01009C6D01008C6D010072
:103110006C6D0100AC6D01005C6D0100D46C0100B0
:10312000FD7E0000195B000078440020186D01004E
:10313000AD7F000079720000817F0000FD65000016
:103140007C6A01007A0800207B080020B408002077
:103150008008002063460100E80800209942000032
:103160007B4201007C080020386D01007D45010094
:103170003C6D01003945010033460100D46901006E
:1031800010B5084C00232360074B18682100074B3B
:1031900098472368002B03D080225205044B1A6005
:1031A00010BDC0465009002078440020E1620000B4
:1031B00004ED00E010B582B000240194074B1868BC
:1031C00001A9074B9847074B1C70019B002B03D0AC
:1031D00080225205044B1A6002B010BD7C440020CE
:1031E000E16200005409002004ED00E010B582B057
:1031F00000240194074B186801A9074B9847074B17
:103200001C70019B002B03D080225205044B1A60D6
:1032100002B010BD7C440020E1620000540900208F
:1032200004ED00E010B5054B1868002300220021D2
:10323000034CA0470138431E984110BD8044002034
:10324000555C000010B50100034B1868034B98470C
:103250000138431E984110BD80440020FD650000E8
:10326000C000400804D00023C04601339842FBD17F
:103270007047000010B50A4B062154229954802251
:1032800052035A600120074B9847074B18600322EE
:1032900000210120054B9847054B186010BDC04622
:1032A000004400417D5F000080440020195B000065
:1032B0007C440020034B0221542299548022520363
:1032C0009A6170470044004170B5002802D001287F
:1032D00013D070BD72B6124C80256D03A560656178
:1032E0003C20104EB047104B98470A20B04762B6BA
:1032F00006225423E2546560EBE772B6084C802541
:103300006D03A56065610620064EB047064B9847E1
:103310004020B04762B606225423E2546560D8E7E5
:103320000044004161320000B5320000F8B562B6D9
:103330000B4D80267603AE606E610620094FB847BC
:10334000094B98470920B8472C6A3720B84762B61E
:1033500006225423EA546E60E002C00FF8BDC04656
:103360000044004161320000B5320000F8B572B689
:103370000C4D80267603AE606E61F02040000A4F4F
:10338000B8470A4B98474620B8472C6ACD204000E2
:10339000B84762B606225423EA546E60E002C00FBA
:1033A000F8BDC0460044004161320000B532000063
:1033B000F8B5050008240127054E38002840B0471D
:1033C0006D08013C002CF8D1024B9847F8BDC0466F
:1033D000C9320000B5310000F8B500240025094EBF
:1033E000012702E00134082C07D0B0470028F9D0AB
:1033F0003B00A3401D43EDB2F4E7034B9847280080
:10340000F8BDC0462D330000ED31000070B5050059
:103410000C0008000F4B9847002800D070BD0E4BE1
:103420001E6828000D4B9847210030000C4B984730
:10343000012803D00B4B98470120EFE70A4B1B787C
:10344000002B03D00022084B1A70F3E7054B984776
:10345000E4E7C046453200007C440020B133000060
:10346000FD650000253200005409002070B50D00F4
:103470000800104B98470024002801D060B270BDAE
:103480000D4B1E680D4B98470400290030000C4B73
:103490009847012803D00B4B98470120EFE70A4BD0
:1034A0001B78002B03D00022074B1A70F3E7054B63
:1034B0009847E3E7453200007C440020D933000000
:1034C000FD650000253200005409002070B5064B50
:1034D000984701256D422900CC20044CA0472900C3
:1034E0004420A04770BDC0466D3300000D3400007D
:1034F00070B50C4B984701256D422900CC200A4C31
:10350000A0472900BE20A04729000020074EB04751
:10351000040029000020B047C3B21B02E0B21843E8
:1035200070BDC0466D3300000D3400006D340000E6
:1035300000B583B000230193064B186801A9064B20
:103540009847019B002B03D080225205034B1A6041
:1035500003B000BD88440020E162000004ED00E0FB
:1035600000B583B000230193064B186801A9064BF0
:103570009847019B002B03D080225205034B1A6011
:1035800003B000BD88440020E162000004ED00E0CB
:1035900030B591B08023DB05009300230193FF2217
:1035A00069460A8100228B72CB72962189010891AB
:1035B000012124206C4621540130215425316354CB
:1035C000013163540A9305316354013163540E93FE
:1035D0000F9305932382E376227622776276132374
:1035E000A376627780235B030393224B0C93224BD9
:1035F0000D93224D224C6A4622492800A0470028FC
:10360000F9D11E4D2C6820001F4B98471F231840EE
:103610001E3B83401D4A13602A68D369002BFCD1EE
:103620002368022213432360144C0022184920000F
:10363000184DA847012218492000A8473122A35C51
:1036400003210B43A3540120144B9847144C2060D2
:10365000032200210120134B9847134B1860236865
:10366000002B03D0002801D011B030BD0F48104B03
:103670009847F9E70300220003002300904400204C
:1036800051D40000001C0042CDCC000000E100E05D
:103690003135000021D80000613500007D5F000059
:1036A0008C440020195B000088440020BC6D0100A0
:1036B000FD7E000070B506000D001F4B18689621B6
:1036C00049001E4B984701282DD11D4955230B70E9
:1036D00001221C481C4B98470024002808D0164B98
:1036E0001868002300220021184DA847200070BD53
:1036F000174B18682900114B9847012816D1022250
:1037000014491048144B9847114B186829000B4B6B
:10371000984701280DD10F490A7812024B789B185F
:1037200033800024DBE71D246442D8E7032464428D
:10373000D5E703246442D2E78C440020FD650000F5
:10374000864400209044002039D80000555C0000D9
:10375000884400208444002059D8000010B582B06D
:1037600000240194074B186801A9074B9847074BA1
:103770001C70019B002B03D080225205044B1A6061
:1037800002B010BDC8440020E162000055090020CD
:1037900004ED00E010B582B000240194074B1868D6
:1037A00001A9074B9847074B1C70019B002B03D0C6
:1037B00080225205044B1A6002B010BDC84400209C
:1037C000E16200005509002004ED00E010B582B070
:1037D00000240194074B186801A9074B9847074B31
:1037E0001C70019B002B03D080225205044B1A60F1
:1037F00002B010BDC8440020E1620000550900205D
:1038000004ED00E070B50C4C00220C4920000C4D7A
:10381000A847637E0122134363760A492000A84724
:10382000637E02221343637607492000A847637E24
:1038300004221343637670BD084300205D37000007
:103840009929000095370000CD37000070B58EB083
:1038500001AB64220192334A0292002203921A734E
:103860001A768021890305910121494299822531E7
:103870005A540B9208315A5401315A5401315A5456
:10388000D7321A86284A0892284A0992FA229200C8
:10389000DA820324264D274E01AA27492800B04783
:1038A000002806D02248254B9847013CE4B2002C62
:1038B000F2D11F4B1C680722E3691A42FCD123682E
:1038C0000222134323601A4D28681D4B98471F237B
:1038D00018401E3B83401B4A1360E88800231021D8
:1038E000628B0A4204D101338342F9D310236383EC
:1038F000154B98470120154B9847154C2060032223
:1039000000210120134B9847134B18602368002BAC
:1039100004D00023002802D1063300E0062318005B
:103920000EB070BD480D0000020008000200090042
:10393000084300209D3D0000000800429540000023
:10394000CDCC000000E100E0053800007D5F000004
:10395000C4440020195B0000C844002010B50028B2
:1039600012D04368002B12D00A4902780A804B60BB
:10397000C3894B800848094B98470023002801D190
:10398000180010BD063BFBE708235B42F8E708235D
:103990005B42F5E7CC44002008430020D529000015
:1039A00010B5002813D04368002B13D00B490378BF
:1039B0000B8083684B6083894B800948094B98478B
:1039C0000023002801D1180010BD063BFBE70823A7
:1039D0005B42F8E708235B42F5E7C046CC44002091
:1039E00008430020B129000010B5074B18680023D8
:1039F00000220021054CA047012801D1002010BD64
:103A000014204042FBE7C046C4440020555C00003F
:103A100010B50100054B1868054B98470023012895
:103A200001D1180010BD1D3BFBE7C046C444002077
:103A3000FD650000F8B506000D000800124B984720
:103A4000041E01D02000F8BD104B1F683000104B41
:103A50009847041E07D1290038000E4B98470128CB
:103A600004D0032464420C4B9847EBE70B4B1B78C4
:103A7000002B04D00022094B1A70033CF3E7064BDD
:103A800098470400DEE7C046113A0000C844002011
:103A90005D390000FD650000E9390000550900208E
:103AA000F0B583B00600019115001000214B984736
:103AB000041E02D0200003B0F0BD1F4B1F68300071
:103AC0001E4B9847041E07D1290038001C4B98470D
:103AD000012804D0032464421A4B9847EAE71A4BA2
:103AE0001B78002B10D1019B002B12D13000174BFB
:103AF0009847041EF0D129003800114B984701283F
:103B00000BD003246442E7E700220F4B1A70213CDC
:103B1000E2E718000E4B9847E8E70B4B1B78002BA9
:103B200004D00022084B1A70213CD5E7054B98477A
:103B3000C0E7C046113A0000C84400205D390000CB
:103B4000FD650000E939000055090020A139000099
:103B5000D970000010B586B001AC217002A8446095
:103B600082600122C28183816A320270073A1900A1
:103B7000014B984706B010BDA13A0000B0B584B023
:103B800000AF14005D1C18000830C008C0006A4671
:103B9000121A95461170501C1A002100064B9847C6
:103BA0006B233B706B467B60FD8164213800034BC7
:103BB0009847BD4604B0B0BD45420100353A00000B
:103BC00070B5856844682800A04770BD10B5034BE8
:103BD00098470349034B984710BDC0469D260100F6
:103BE00023DB793DE520010070B582B00D0001AC0A
:103BF000012322001E21044EB0472378DB07DB0F90
:103C00002B7002B070BDC046C13B000030B583B020
:103C10000C0006236A4628210A4DA8476B465A78AD
:103C200012021B789B1823806B46DA7812029B786D
:103C30009B1863806B465A7912021B799B18A380EC
:103C400003B030BDC13B000000487047C8000020F1
:103C500030B583B00E246D462C700A3C6C702A710E
:103C60006971AB714300C018030AAB70E870044877
:103C700045600723C3816421024B984703B030BDE0
:103C8000D8440020353A000000B583B001AB064AA5
:103C900092881A80054843600223C3816421044B43
:103CA000984703B000BDC046E46D0100D844002031
:103CB000353A000070B5124E124C31002000124B04
:103CC00098470023A372114A6260E372104AE261CE
:103CD00023750222227663760E4D220031002800E1
:103CE0000D4B98472B689A68002AFCD102219A68EC
:103CF0001142FCD11A6802210A431A6070BDC04605
:103D0000002400422845002025E2000040420F0028
:103D1000204E0000E844002071E3000000B583B0AD
:103D200001A901238B700022CA7004320A704B7003
:103D30000A20024B984703B000BDC0461DE10000B9
:103D400010B50200044C00212000044B9847226863
:103D50009368002BFCD110BDE84400207DE70000F3
:103D600000B585B001A901234B6000234B700B7295
:103D70004B7207330B700020034B98470020034B16
:103D8000984705B000BDC046E1DD000099DE0000A7
:103D900001680722CB691A42FCD17047F0B5D646BC
:103DA0004F464646C0B58AB006000F001400316089
:103DB0000800A04B9847A04A116A851C0123AB401C
:103DC0000B43136209A9237B0B701430C5B2280082
:103DD0009A4B984728009A4B9847207B0021994B93
:103DE00098473B681C209B0705D50AB01CBC904631
:103DF0009946A246F0BD3B681738DB07F5D430681A
:103E00008C4B9946984705008F49904B9847AD00D9
:103E10008F4BEE5000233376737600257383B38384
:103E20002522B554336214333B603368984618003A
:103E3000C8478146802308AA1370557001239370E8
:103E4000D570E069276A002800D1AFE008AB187090
:103E5000022308AA5370000CC0B211007D4B984792
:103E6000002F00D1A7E008AB1F70022308AA5370EF
:103E70003F0CF8B21100774B9847A38AF380E38A8E
:103E80003381237E8022002B04D1734B9B789B07C8
:103E9000DB0FDA01A16823690B4313432422A25CE0
:103EA000002A02D08022D2051343A26A13432C2297
:103EB000A25C002A03D180229204914202D1802286
:103EC000120513432D22A25C002A02D08022120484
:103ED00013432E22A25C002A02D08022D203134375
:103EE0004246126813434246136080235B005360CE
:103EF00048461430C0B2594B98470790FA239B00AC
:103F000022685A43914663689A46554DA8470090E7
:103F100001914B465800A84702900391208EA84774
:103F2000049005914F4F504A504B00980199B84763
:103F300002000B0004980599B8474D4E00224D4BE6
:103F4000B047049005914846A84702000B0004982A
:103F50000599B84702000B00474D00980199A84702
:103F6000029A039BB0470022444BA847029A039B46
:103F7000434DA847434B9847050080239B04A26804
:103F80009A421ED003004020FF2D00D92DE70024C7
:103F90000020FF251D40240625430004FF231B04A9
:103FA000184005434346DD6000201EE700214046DF
:103FB000354B98474AE701214046334B9847070065
:103FC00051E7FA26B60053465E4300980199020075
:103FD0000B00274CA047009001913000204B9847E0
:103FE00000222A4BB84702000B0000980199244C8C
:103FF000A0470022214B204CA047224B9847041E8B
:104000000CD031000798224B98470238001B2B0038
:10401000FF2D0CD8FF28BCD94020E6E67100481ED1
:10402000079B9C4660441A4B98470138EFE74020B5
:10403000DBE6C04655CC000000040040F5DF000080
:1040400069DF000091CA0000F929000091CC00004E
:10405000CC5B00201DE100000020004111E00000C9
:10406000593F0100C533010095D626E80B2E113EBD
:104070003D27010000002440C53801000000F03F4A
:104080005D2D0100F13E0100DDCA00000000084086
:10409000751D0100F8B5CE46474680B5040003689B
:1040A0009946144EB04725682800134B9846984708
:1040B0001F23184001273900814061330F4AD15036
:1040C0002000B04783232B752B762B680222934365
:1040D0002B600B4B98472068C0470A4B98470A4B08
:1040E00098472000B0474B461F600CBC904699464D
:1040F000F8BDC046913D0000CDCC000000E100E0DD
:1041000041C4000045E0000081C4000003681A7E3D
:10411000920707D502221A765B8B9B074120DB179B
:10412000184070475A8B520706D55968C022920230
:104130000A435A601820F4E70020F2E730B502681D
:10414000002301240225117E21420BD1117E294238
:1041500006D101339BB201899942F4D8122002E0C2
:10416000002000E0002030BD10B5046862688023A4
:10417000DB02134363606162024B9847012323769D
:1041800010BDC0463D41000070B58000164BC458BC
:1041900023689D7B227E637E13401D40EB0706D47F
:1041A000AB070BD4EB0610D4AB0615D470BD2000C2
:1041B000A3689847012322689373F1E72000E3681E
:1041C0009847022322689373ECE7200023699847FD
:1041D000102322689373E7E72000636998472368F8
:1041E00020229A73E2E7C046CC45002010B500209B
:1041F000014B984710BDC0468941000010B5012011
:10420000014B984710BDC0468941000010B50220FF
:10421000014B984710BDC0468941000070B50A00A7
:10422000094B1B68002B0AD0074C25682B6859687E
:10423000064B984768682060431E984170BD04494A
:10424000014B1960F0E7C0465C090020634601009D
:10425000D800002070B5051E06D008200A4B9847EC
:10426000041E03D172B6FEE772B6FEE7074B98470D
:10427000256000236360064B1A6854601C60054B80
:104280009847012070BDC04665570000A156000048
:10429000D4000020B9560000F0B5DE4657464E4621
:1042A0004546E0B583B0060000910192394B1B688A
:1042B000002B11D01B689B68320001990098984729
:1042C000002802D10022334B1A6003B03CBC904658
:1042D0009946A246AB46F0BD2F4C2E4B1C602F4B8F
:1042E0009946202398462E4B9B462A4B9A460AE035
:1042F000020029003000D84700280DD064685346DA
:104300001C60002C3ED027683D682800C847335CFD
:1043100042469343F2D1EBE73F7B7FB2002F2DDB88
:104320003378002B28D0320000250021012408E03A
:1043300001290AD001356DB2210001321378002B1A
:1043400005D0202BF4D00100F7E72100F5E7012983
:104350000FD0104B1B68002B14D0AF42AAD0019A8B
:1043600010490098104B984700220A4B1A60002011
:10437000ABE7013D6DB2ECE70025EAE7054B1B68B2
:10438000002B97D1019A09490098074B98470020C4
:104390009BE7C04658090020D800002033460100A2
:1043A00041460100EC6D010063460100446E0100CE
:1043B00030B500231360002400290AD1002027E033
:1043C00001300378202BFBD0002B20D00134A142F8
:1043D0000BD00378002B1ED0202BF1D001300378B6
:1043E000002B18D0202BF9D1EAE7037820218B434A
:1043F0000FD00400202513680133136001342178A5
:10440000A943F8D15A1E93415B42184000E00020B6
:1044100030BD0020FCE70378D6E7000010B5014B63
:10442000984710BD5569000010B5024B984780B2FF
:1044300010BDC046A575000010B5024B9847000C92
:1044400010BDC046A575000070B504000D00044BFA
:104450009847010C090429432000024B984770BD7E
:10446000A5750000B175000070B504000D00054B86
:1044700098470104090C2D0429432000024B98475A
:1044800070BDC046A5750000B175000010B5024BA7
:10449000984780B210BDC0464D69000010B5024B70
:1044A0009847000C10BDC0464D69000070B504006F
:1044B0000D00044B9847010C090429432000024BCE
:1044C000984770BD4D6900005169000070B5040047
:1044D0000D00054B98470104090C2D0429432000C9
:1044E000024B984770BDC0464D69000051690000FD
:1044F00010B5014B984710BDB975000010B5040008
:10450000094B9847012C04D0022C05D0002C07D170
:1045100010BD064B9847FBE70548064B9847F7E761
:104520000548044B9847F3E7214700000155000078
:1045300000720100F94800004072010010B52F4BD5
:104540001B680922DA65013264215A5401315A5438
:1045500001315A54053201315A54623968201954D4
:1045600001301954013019540130195401301954D3
:104570006B315A5401315A5401315A5401315A5451
:1045800001315A5401315A5401315A5401315A54AB
:1045900001315A5468396D329954013299540132BB
:1045A00099546B3A13301A54112401301C540130C1
:1045B000195472315A5401315A5401315A5400215C
:1045C00075329952A03102329952A0310232995279
:1045D000A031023299520A490232995209490232F3
:1045E00099520949023299520849023299525F316F
:1045F00002329952064A1A6610BDC0466009002070
:10460000FD02000052030000A203000001040000AC
:10461000BF040000174B00225A821A800A329A8285
:104620005A800A32DA829A800A321A83DA800F328A
:104630005A831A8105329A835A810532DA839A8124
:1046400005321A84DA8105325A841A82383A9A84F9
:104650000A32DA840A321A850F325A8505329A856F
:104660000532DA8505321A8605325A8605329A866F
:104670007047C0467C090020082813D880000B4BE7
:104680001B589F460A4810E00A480EE00A480CE012
:104690000A480AE00A4808E00A4806E00A4804E036
:1046A0000A4802E00A4800E00A487047DC6E010050
:1046B000486F0100906F0100E46F0100307001004D
:1046C0007C700100C87001001C7101007471010050
:1046D000D0710100006F010010B5002A0DD00B78D9
:1046E00003700B78002B08D0002301339A4204D0CA
:1046F000CC5CC454CC5C002CF7D110BD10B5064B7B
:104700001B68002B01D000221A63044B1B68002B8E
:1047100000D0984710BDC04660090020280A00203C
:10472000F8B5DE4657464E464546E0B5514B1B6848
:10473000002B00D199E01B78012B00D18FE04E4B6C
:104740001A684E4B1A604B4C4D4D2A0000212068D0
:104750004C4B984723684C4A9A8105229A73002251
:10476000DA731D61C82149009961484959659A6504
:104770005A63474B98472068464A474BC250C82265
:1047800092000433C250454B0122C250444A912347
:104790001B01C250434B9C46604450224249434B4C
:1047A000984723684249434A99500A21424A9954FA
:1047B0000131424A99540131414A99540131414AE7
:1047C000995401326431995472253F4A9D5473269D
:1047D0003E4A9E5474273E4A9F54F12290463D4AD9
:1047E00041469954F22291463B4A49469954F32254
:1047F00092463A4A51469954F4229346384A5946C9
:104800009954384B984723685A46DA7252469A723E
:104810004A465A7242461A72DF719E715D71712268
:104820001A710422DA70032322689370013B226814
:104830005370236801221A702B4B196800290ED07F
:104840000C4C2368174A9446634418005022174BB7
:10485000984722680121254BD150254B98473CBCF5
:1048600090469946A246AB46F8BD224A014B1A60D3
:1048700065E7C0466009002018E000E09055002080
:10488000B80F00007B420100A11A0000F0F0F0F028
:104890003D450000F1F1F1F15C0500006405000008
:1048A000F2F2F2F21409000040740100D94600004F
:1048B000F3F3F3F364090000AC0F0000AD0F000048
:1048C000AE0F0000AF0F0000B10F0000B20F0000EC
:1048D000B30F0000B40F0000B50F0000B60F0000CA
:1048E000B70F000015460000180A00200C09000050
:1048F000FD460000D845002010B504000E4B1B6893
:10490000002B01D00D4B98470D4B1B68002B00D09E
:1049100010BD0B4B1C60084B18680028F8D0094BE1
:104920009C46604450222100074B9847024B1A686E
:104930000121064BD150EBE760090020FD46000045
:10494000180A002014090000D94600000C090000D4
:1049500010B50B4B1868036B002B0FD0C369902266
:10496000FF32934205D89B00064A94466344C01820
:1049700010BD0548054B98470020F9E70020F7E7F0
:10498000600900206809000054740100F948000023
:10499000F0B5C64600B5002806D00700002500285F
:1049A00005D0234B98460AE02248234B984704BC85
:1049B0009046F0BD012A20D00135BD42F7D24346D2
:1049C0001C68E369EB189E00A2191C498C466244DE
:1049D000127811006731C9B20E29EBD86832D2B211
:1049E000D318A1698B42E7D2013292006346F018D6
:1049F00020180021124B9847DEE70133A269934249
:104A000007D20E4BF0182018082200210C4B9847B3
:104A1000D2E70A4BE01804220021094B9847074BC4
:104A2000F018201804220021054B9847C4E7C0461F
:104A30006009002074720100F94800006809000054
:104A40007B42010010B50B4B1B681A6B002A10D07B
:104A50005A6901325A61DA690132DA619021FF3113
:104A60008A4203D901221A620022DA610120024B34
:104A7000984710BD600900209149000070B50400FE
:104A80000D00FF2802D00D4B984203D1AC4205D354
:104A9000280070BD0A480B4B9847F9E70A4B984726
:104AA000002809D0012303702B00A3431A0A427087
:104AB0001B0C4380054B98472540E9E7FFFF0000AA
:104AC00078730100F948000051490000454A000090
:104AD00010B5082914D8002817D00E4B1A6853189F
:104AE00064331B78834210D353187C331B7801380E
:104AF00058434031490051180B89C01880B208E072
:104B00000548064B9847002003E00548034B9847AB
:104B1000002010BD60090020087A0100F94800005B
:104B2000487A010010B50B0001001800044B9847AB
:104B3000044B1B6818189C300123037010BDC0463D
:104B4000D14A00006009002070B50400080015007B
:104B5000082C13D80D4B1B681B1964331B788B4230
:104B600010D321000A4B9847084B1B681C1970345E
:104B700022781B189B189D331D7070BD0548064B8D
:104B80009847FAE70548044B9847F6E76009002084
:104B9000D14A000090750100F9480000DC75010061
:104BA00010B504000800082C13D80F4B1B681B1904
:104BB00064331B788B4211D321000C4B98470A4B6E
:104BC0001B681C19703422781B189B189D331878A9
:104BD00010BD0748074B98470020F9E70648054BEA
:104BE00098470020F4E7C04660090020D14A000041
:104BF000B4730100F94800000074010070B50400AE
:104C000008001500082C13D80D4B1B681B196433C2
:104C10001B788B4210D321000A4B9847084B1B6826
:104C20001C19703422781B189B189C331D7070BDA2
:104C30000548064B9847FAE70548044B9847F6E7BE
:104C400060090020D14A000010750100F9480000F9
:104C50005475010010B50B4B1A686723D35C83426F
:104C60000CD30321084B9847064B1B6873229A5CB0
:104C70001B189B189C3300221A7010BD0348044B6C
:104C80009847FAE760090020D14A00001C7601002D
:104C9000F948000070B52D4B1B68002B46D0082842
:104CA00049D8EFF31084012383F31088284A13684E
:104CB00001331360274A43009B5AD21848321278B6
:104CC000002A0AD12349CD1848355A1C0600083657
:104CD000760089194988521A2A700100103149005A
:104CE0001C4A521892889A422AD31A49CA18483242
:104CF000127801339BB245006B52050008356D00F8
:104D00004D196D885B1B050018356D004919C98860
:104D10008B4203DD0F494819DBB2C3800C490B6895
:104D2000013B0B6084F31088100070BD0A480B4BE8
:104D300098470022F8E70A48084B98470022F3E713
:104D4000084B9847054B98470022E7E76009002089
:104D5000100A00207C0900200C7B0100F9480000AB
:104D6000307301007946000070B504000800151E7C
:104D700012D0082C14D8002916D0164B1B681B190A
:104D800064331B788B4213D32100134B9847134B8A
:104D90001B68002B12D070BD1148124B9847FAE7E0
:104DA0001148104B9847F6E710480E4B9847F2E72A
:104DB00020000F4B98470B4B9847ECE7054B1B68BF
:104DC0001C19703422789C3018182900094B984718
:104DD000E1E7C04660090020D14A0000180A00201F
:104DE0007C740100F9480000B0740100E074010017
:104DF00079460000D946000070B51E4B1B68012B98
:104E00002BD01D4B19681D4B1B680131C91A1C4B57
:104E10001B681C4A1468E243DA4224D41A4A146814
:104E2000A142A44164421C1900281FD0124D2B68D6
:104E300001339B0863431A00144E33602D6801351B
:104E400003232B4063435B189B089B1833600C4A79
:104E5000146003600C4B196070BD0028FCD00B4B34
:104E60001B680360F8E7A342DED1D7E7044B1C6060
:104E7000F0E7C0461C0A002014E000E018E000E063
:104E800078090020240A00207009002074090020FD
:104E9000F0B583B0050000230193FF2802D0394B01
:104EA000984235D1384B1C68636A002B05D1374BCB
:104EB0001B68002B31D09B08636201A8344B9847D4
:104EC000019B344A11685C1A13602F4A1668776A8E
:104ED000002F32D0BC422CD9390020002E4B9847ED
:104EE000F36A9C466044F062390020002B4B9847DF
:104EF000B36A9C466144B162234B1B689A6A596A43
:104F00008A421BD3D86A0130D862521A9A6215E0DD
:104F10002348244B9847002014E0234B1A68234B66
:104F20001B689A42C9D00020214B984780086062D4
:104F3000C3E7B36A1B19B362DEE7B362AC4203D8BE
:104F40002000284003B0F0BD1A4B98470028F7D046
:104F50000C4B9D4207D0FF2D0CD01748114B9847A2
:104F6000164B9847ECE7A9230370230C43800023DA
:104F70004370F5E7A8230370230A4380230E437090
:104F8000EEE7C046FFFF000060090020140A002081
:104F9000F94D00000C0A0020751D0100811E010062
:104FA000CC720100F948000018E000E090550020A4
:104FB000DDDE0000514900000C730100454A00008D
:104FC00070B5041E1DD01B4B1B68002B19D00F2879
:104FD00018D8194B1B68002B18D1EFF3108501234B
:104FE00083F31088144A136801331360134B1B6852
:104FF0001B6B002B0ED1104A1368013B136085F325
:10500000108870BD0E480F4B9847FAE70E480D4BBD
:105010009847F6E70D480E4B984706000D4B98470A
:105020000028E8D002230370468044700A4B98475A
:10503000E1E7C046EC000020100A002060090020D3
:105040000C790100F94800004C790100FFFF0000D5
:10505000914E000051490000454A0000F0B583B070
:1050600000900C00284B1B68002B1DD0D317D618BE
:105070005E40EFF31085012383F3108823490B680A
:1050800001330B60002C04D0214B19688C4662441C
:105090001A601D4B1B681B6B002B07D11B4A136842
:1050A000013B136085F3108803B0F0BDFF20194B5E
:1050B0009847019031001848184B98470600184B44
:1050C0009847071EEAD06B461B7943700023037094
:1050D0004680144B984721000F48104B9847060014
:1050E0000F4B98470028D9D04680002343706B4669
:1050F0001C78631C03703C700A4B9847024B1B687A
:10510000034A12681A65C9E760090020100A0020E6
:1051100068090020914E0000FFFF00007D4A00005A
:1051200051490000454A0000F8B505001400FE286A
:1051300025D8082927D8214B1B68591864310B78CA
:10514000934224D31E4B1B68002B24D11D4B1B788C
:10515000002B13D0EFF31086012383F31088184A35
:10516000136801331360154B1B681B6B002B16D1A2
:10517000134A1368013B136086F31088F8BD124888
:10518000124B9847FAE71248104B9847F6E7114838
:105190000E4B9847F2E710480C4B9847EEE70F4844
:1051A0000F4B984707000F4B98470028E0D04780E7
:1051B000057044700C4B9847DAE7C0466009002040
:1051C000100A00206409002064760100F9480000FC
:1051D0009C760100E47601002C770100FFFF0000BF
:1051E000914E000051490000454A0000F0B5C64606
:1051F00000B5060014001D00FE2827D8082929D86C
:10520000244B1B68591864310B78934226D3224BE8
:105210001B68002B26D1EFF31088012383F310883D
:105220001D4A1368013313601A4B1B681B6B002B5C
:1052300003D01A4B1B78002B18D1174A1368013B77
:10524000136088F3108804BC9046F0BD1448154BD9
:105250009847F8E71448134B9847F4E71348114B65
:105260009847F0E712480F4B9847ECE7FF20114BA7
:10527000984707002900FF200F4B984705000F4B68
:1052800098470028D9D0C7700670447085700C4BC1
:105290009847D2E760090020100A00206409002026
:1052A000F4770100F94800003478010084780100A7
:1052B000D4780100914E00007D4A00005149000061
:1052C000454A0000F8B504000D00FE281CD81C4B10
:1052D0001B68002B1CD1EFF31086012383F3108889
:1052E000174A136801331360164B1B681B6B002BA6
:1052F00003D0154B1B78002B0ED1114A1368013BCC
:10530000136086F31088F8BD1048114B9847FAE7F0
:1053100010480F4B9847F6E7FF200F4B98470700C0
:1053200029000E480E4B984705000E4B9847002861
:10533000E3D04770047045800B4B9847DDE7C046CB
:10534000100A002060090020640900206477010031
:10535000F9480000BC770100914E0000FFFF0000FB
:105360007D4A000051490000454A0000F8B504009C
:105370000F2818D8EFF31085012383F31088264AED
:10538000136801331360254B1B78834204D0244BF0
:105390001B681B6B002B0AD11F4A1368013B13606B
:1053A00085F31088F8BD1F481F4B9847FAE7002285
:1053B0001E4B1A601E481F4B98470700174B1C7066
:1053C0001D4B9847061EE7D0144B1878144B1A68EB
:1053D0006723D35C83420FD30321184B9847104BAC
:1053E0001B6873229A5C1B189B189C331B78012B3B
:1053F00005D10633337004E011480B4B9847062360
:10540000337077807470054B1978012203200D4B9F
:1054100098470D4B9847BFE7100A00206409002009
:105420006009002084790100F94800006C0900201F
:10543000FFFF0000914E000051490000D14A0000DA
:10544000CC790100FD4B0000454A000070B5204BAF
:105450001B68002B0AD0186B012806D01D4B1B6857
:10546000002B08D01A4B1B68186B70BD1A481B4BD9
:1054700098470020F9E7EFF31085012282F31088A6
:1054800017490B6801330B60114B1B681A63154BEE
:105490009847154B9847C4B2002C09D02000134BF5
:1054A00098470F4A1368013B136085F31088D9E7CA
:1054B00003200F4B9847060004000E4A010003200A
:1054C0000D4B98470022310003200C4B9847E5E72D
:1054D00060090020180A0020887A0100F9480000BD
:1054E000100A0020F1440000294400006D53000020
:1054F000954C0000CC7A0100694D0000494B00003A
:1055000010B5014B984710BD4D54000003000833FF
:105510004360012252428260C36003610023036042
:10552000704700230361704743684B609A688A6044
:105530009A6851609960086103680133036070479D
:1055400030B50C6802000832631C02D1026904E025
:105550001A0053681D68AC42FAD253684B609960D8
:105560008A605160086103680133036030BD0369DC
:105570004268816891608268416851605A689042CF
:1055800006D0002202611A68013A1A601868704752
:1055900082685A60F5E7000082B000230193064B51
:1055A0001B68013301D072B6FEE772B6019B002B77
:1055B000FCD002B07047C046F000002000000000A0
:1055C0000B4A13681868203080F30988022080F3A2
:1055D0001488BFF36F8F3FBCAE4608BC04BC62B6F4
:1055E0001847C046C046C046C046C046C046C04632
:1055F000FC3C002010B5031F802464041C60043BA5
:105600001960043B02491960143B1A60403810BD10
:10561000995500007047000070B5134B1968FF22C0
:1056200012040A431A601968FF2212060A431A601C
:105630000E4D00242C600E4B1C6000200D4B984733
:10564000FA2189000C4B984701380C4B186007234E
:105650002B600B4B1C600B4B98470B4B98470B4B2D
:105660009847002070BDC04620ED00E010E000E04B
:1056700018E000E0DDDE0000751D010014E000E030
:10568000F0000020C155000079710000995500001C
:1056900080225205014B1A607047C04604ED00E0BD
:1056A00072B6044A136801331360BFF34F8FBFF320
:1056B0006F8F7047F0000020064B1B68002B01D154
:1056C00072B6FEE7013B034A1360002B00D162B6BD
:1056D0007047C046F0000020EFF3108072B67047AC
:1056E00080F31088704700000000000000000000F8
:1056F000EFF309800E4B1A6820381060F0C0444662
:105700004D4656465F46F0C008B572B601F034FD0E
:1057100062B60CBC116808681030F0C8A046A946F3
:10572000B246BB4680F309882038F0C81847C04607
:10573000FC3C002010B5074B98470400064B9847E7
:10574000002803D080225205044B1A602000044B2D
:10575000984710BDD9560000216E000004ED00E00E
:10576000E156000070B50400430702D007239C43B4
:105770000834184B9847184B1B68002B17D0174B51
:105780001A68A31816498B4218D89A4216D21249A1
:105790000D68AD18114A1360002D0FD022002900AA
:1057A0009420104B9847104B9847280070BD072253
:1057B0000E4B08339343084A1360E0E722000021B0
:1057C000E820084B9847084B9847094B9847002515
:1057D000EBE7C046056E00002C0A0020F83C0020D4
:1057E000BF3200005D500000AD6F0000300A0020A5
:1057F0004D1D0100002801D072B6FEE77047000081
:10580000024B1B68CB208001C01A7047F83C002077
:1058100010B50400034B9847A46B034B98476042B4
:10582000604110BDA1560000B956000070B50400DB
:105830001600856B026C002A0BD10020236883427E
:1058400004D16068164B9847002363600135A56357
:1058500070BD002E0ED18068124B9847A368226C51
:1058600094466344A360002062689342EED32368A9
:10587000A360EBE7C0680B4B9847236C5B42E26880
:10588000D218E26021688A4203D262689446634477
:10589000E3600020022ED9D18542D7D0013DD5E763
:1058A000FD76000045420100F0B5CE46474680B582
:1058B00083B001900091846C002C05D0A26BE36B47
:1058C0009A4203D372B6FEE772B6FEE7A26B0026D9
:1058D000934205D8300003B00CBC90469946F0BD09
:1058E0004523E55C6DB22C4B98472C4B98472C4BCD
:1058F0001B8803421ED020002A4B9847284B1B8848
:10590000034217D02536009B002B06D12000264BE2
:105910009847264B1E5C2036F6B22000224B984753
:10592000224B1F5C2000224B9847C2B23900300046
:10593000204B984720001C4FB8471C4E335C9846BC
:1059400020001B4B9847C3B299462000B847335CF0
:10595000022B19D0A26B0132D2B249464046164BF7
:105960009847009A01A92000144B984706006B1C29
:105970000CD1636A002BADD020002430104B984727
:105980000028A7D00126A5E70022E6E701356DB281
:105990004523E5549EE7C046F14400003944000029
:1059A000E80000209D4400001D440000E0000020AD
:1059B0008D44000029510000FD4B00002D580000CF
:1059C0005D74000010B50C00026C002A0BD0C36897
:1059D0009B18C36041688B4201D30368C360C168F0
:1059E0002000014B984710BD45420100F8B5070063
:1059F000254B98474523FC5C64B2002C1CDD234EEC
:105A0000234D0BE07B6A002B16D038002430A847CA
:105A100000280ED1013C64B2002C0DD0BB6C002BD1
:105A2000F0D000213800B0470028F3D0194B984738
:105A3000F0E7184B9847EDE7FF224523FA54164B41
:105A40009847114B98474423FC5C64B2002C14DD4A
:105A50003B69002B11D03D0010350D4E06E0013C96
:105A600064B2002C09D03B69002B06D02800B04757
:105A70000028F4D0074B9847F1E7FF224423FA545B
:105A8000054B9847F8BDC046A1560000A958000034
:105A90005D74000099750000B956000070B50400EF
:105AA0000D00002821D0174B98472268216CE36B2A
:105AB0004B43D01860600020A063A2605B1AD3182B
:105AC000E360FF234422A3540132A354002D11D1DB
:105AD0002369002B05D0200010300B4B984700287D
